:020000040000FA
:10000000980B0020150100002F01000031010000B5
:1000100000000000000000000000000000000000E0
:10002000000000000000000000000000330100009C
:100030000000000000000000350100003701000052
:1000400039010000ED010000390100003901000014
:100050003901000000000000A90100003901000082
:1000600039010000390100003901000039010000A8
:100070003901000039010000390100003901000098
:10008000390100004102000039010000390100007F
:100090003901000039010000390100003901000078
:1000A00039010000390100000000000000000000DC
:1000B0000000000000000000000000000000000040
:1000C0000348854600F05EF800480047B903000089
:1000D000980B0020401E00BF00BF00BF00BF00BF44
:1000E00000BF00BF00BF00BF00BF00BF00BFF1D115
:1000F00070470000401E00BF00BF00BF00BF00BF30
:1001000000BF00BF00BF00BF00BF00BF00BFF1D1F4
:10011000704700000321094802680A43026008484A
:1001200002680A4302600748804707480047FEE725
:10013000FEE7FEE7FEE7FEE7FEE7000024050040DD
:100140005405004065020000C100000003460B4357
:100150009B0703D009E008C9121F08C0042AFAD27D
:1001600003E00B780370401C491C521EF9D2704703
:100170000321001D401E037812021A43491EF9D5BF
:1001800010467047064C0125064E05E0E36807CC93
:100190002B430C3C98471034B442F7D3FFF794FF3D
:1001A00034120000541200000448C16B002904D02E
:1001B0000021C1630249012048707047406100403E
:1001C00000000020C106C90E0120884001490860D6
:1001D0007047000080E100E0C106C90E01208840A0
:1001E000014908607047000000E100E0F8B5114CDB
:1001F0002068114E0027002803D07068C00700D087
:100200002760E0680D4D002807D07068000704D50E
:10021000E760A869002800D080472069002807D03F
:100220007068C00604D527616869002800D080473F
:10023000F8BD000000110040001300401000002035
:1002400005480168002906D000210160034901200A
:100250004870034988607047401101400000002049
:100260000010014010B500F083F8002805D00E49B9
:100270000C484860C8130D4988610D48018CC9B20B
:1002800001290ED1818C09070BD1018D0906090FB7
:10029000042906D1808D0006000F02D105490120F6
:1002A000886010BDDFFF07C000050040006C004003
:1002B000C00F00F00006004030B47446641E25787C
:1002C000641CAB4200D21D46635D5B00E31830BC8A
:1002D000184702E008C8121F08C1002AFAD1704767
:1002E0007047002001E001C1121F002AFBD17047B6
:1002F000094A0109104011400001014307488A08DA
:1003000002400140880002430549500808400A4065
:1003100051000843704700000F0F0F0F3333333382
:100320005555555530B500220E490F4B0A624A62A9
:1003300010468A62242444438500E418401C4C5132
:100340000828F7DB094900200A624A628A62054AE6
:100350002C322423434384009B18401C0B51082853
:10036000F7DB30BDDC010020BC00002028030020AA
:100370001048018CC9B2012917D1818C090714D109
:10038000018D09060A0F03D1828D1206120F0ED0BD
:10039000090F012903D1828D1206120F07D00329FC
:1003A00003D1808D0006000F01D00020704701208E
:1003B00070470000C00F00F0944894B0924941612A
:1003C0000161C1600321022000F066F903210120D0
:1003D00000F062F9002403232246214620460094BF
:1003E000019300F047F901208949C00748600125C1
:1003F000884840210160042000F0EAFD86A103C97D
:100400001191109086A103C913911290662008A93A
:10041000854E08773460AF073D6030680028FCD017
:100420002C22824903A8FFF791FE78216846817546
:100430000221417503228286FF22F532428608A8F6
:1004400045746846017304757948049003A800F068
:10045000F7FC10A9002000F083FD12A9012000F094
:100460007FFD0FA9022000F07BFD72480D21017075
:10047000714944700A6A02710A6A120A42710A6A70
:10048000120C82710A6A120EC2714A6A02724A6AB8
:10049000120A42724A6A120C8272496A674A090E4B
:1004A000C172047494617460BD6070680028FCD0EF
:1004B0006348846001206349000448606149403911
:1004C000486041105E484030016088005149086032
:1004D000556200F01DFB69460D724D728C7201234E
:1004E000032202A9902000F09FFB5748046004609B
:1004F00069460D7280224A728C72544F03213C70FF
:10050000022000F0C9F80321012000F0C5F800F036
:10051000FFFA684605728121417284720123032229
:1005200002A9902000F080FB08A8047668460472B7
:10053000447284720123032202A9902000F074FB0C
:10054000012302220EA9912000F06EFB002806D0A4
:1005500008A93848097E417308A9497E8173684615
:100560000572457284720123032202A9902000F0D3
:100570005BFB354804602F4800F040FD002802D1A5
:100580002C48397B01730A2000F066F80021022014
:1005900000F082F80021012000F07EF828488460F5
:1005A000012028490004486026494039486028480D
:1005B00000694008C007C00F1DD04B2120484904E6
:1005C000403001601B48C473012012494004086098
:1005D0002048056081044D607C7020BF40BF20BF73
:1005E0007A78002AF9D04560856034600D60306803
:1005F0000028FCD081E701201149C0034031086088
:100600000C48C573E0E7000001030000000700503C
:100610000063004000E100E0D2F0F0F0F0000000E4
:10062000E1F0F0F0F00000000001004008120000CE
:10063000390D000048000020400000100005004077
:10064000001501404013014000450040000000201B
:10065000000500500010014031B5054C04E0401E7B
:1006600000902046FFF746FD00980028F7D138BDDE
:10067000E703000030B552000A439900039C0A4387
:100680002102049D0A4329040A43024980004018BC
:10069000026030BD000700501CB500220B460092DE
:1006A00011460192FFF7E6FF1CBD000010B5FF20C8
:1006B000104914300860104CE16A1048016010497C
:1006C000CA8C823A42600F4A0120D0600E4A7020E4
:1006D00050600E4A0020D0600878012802D1E169FC
:1006E000002088470B490A4848600B486061042095
:1006F000607010BD001200401000002040A50040B6
:100700009000002000A0004000F5014000110040D2
:1007100076030020001500403D07000070B5064C30
:10072000A06801252843A06000F0EEFA6570206AF9
:10073000002800D0804770BD10000020F8B5274B7E
:10074000702098602648C1682648274E008D274AA9
:100750000125274C002921D02649096800291DD0F0
:100760005560A1682943A160616A401A401CA062DB
:1007700000F0CAFA20480078002809D0F06AC0B218
:1007800000F0A4F8002803D0A06804210843A0606A
:100790006570206A002800D08047F8BD676A7F1E18
:1007A000676207D25560A16802221143A160401C14
:1007B000A062EDE7156080205860FF200F491C30D3
:1007C0000860206BE169007888470B482238706028
:1007D0000B48606103206070F8BD000000F5014027
:1007E00000110040900000200015004000A00040D3
:1007F000100000200014004076030020001200408A
:10080000AD06000010B50A48016800290ED08068C6
:10081000C0B200F05BF8002808D0064881680422C6
:1008200011438160006A002800D0804710BD00009D
:100830000014004010000020F8B51C4CA0680126F0
:100840003043A06000F060FA19480027807A194D03
:1008500001281FD01848816A00291BD0416A8900ED
:1008600040582063E16900788847216B13480A7873
:10087000091DFFF76BFC206B11494078C8621149D4
:10088000022008600120FFF7A7FCAF606F600E48F0
:100890008660F8BD2F610C48066128690028FCD0ED
:1008A0006670206A0028F4D08047F8BD1000002050
:1008B000B000002000110040DC01002054030020A3
:1008C0000015004080E200E00010004070B51B4CB5
:1008D0000546A06A08282FD2194A2046006A1378D4
:1008E00021464E318000022B01D0D37A02E00B78F2
:1008F000202B21D82658337012782058002A0278ED
:1009000016D0001D891CFFF721FC206A8100625867
:1009100055700C4A92686158401C8A702062082801
:1009200001D300202062A06A401CA062012070BD9B
:1009300002494E31001DE6E7002070BD280300206B
:100940009000002040150040F8B5454C0120A06201
:100950004448454D416A2246890041582163207B25
:10096000424E401C8007800F8446E0602878404F4C
:10097000D269002804D001280ED0022855D11BE0EE
:1009800008789047216B3B480A78091DFFF7DEFB8A
:1009900001203060082043E008789047217BCC207C
:1009A00001433448017000214170216B801C0A789A
:1009B000091DFFF7CBFB24E02B48CA782030407993
:1009C000002A0AD0002808D00022A270294A0B78F9
:1009D0001370CA78002A02D005E00122F5E700284A
:1009E00001D0012200E0002260464000024321487D
:1009F00042700A78801C091DFFF7A8FBA078002828
:100A00000AD0FF201C30306011207860288D606291
:100A100019486061032007E0FF2014303060102087
:100A200078601648606102206070216B14484A7833
:100A3000C2624A780124214691400163A97A81600B
:100A40000C4941600F49022008602046FFF7C4FBB3
:100A50000D480021816041600C480460F8BD000031
:100A600010000020DC010020900000200012004057
:100A70000013004054030020AD0600001D070000D5
:100A80000015004080E200E000110040001000402E
:100A9000FEB51B4801680291002101601948816977
:100AA000019119498161C2690092C161174C80208E
:100AB000A0604025A5600420FFF70CFB206900061C
:100AC00002D5206940060CD400261127E5600420D9
:100AD000FFF700FBA5600420FFF7FCFA2069000681
:100AE00001D5012601E07F1EF0D2064801998161FF
:100AF0000099C1610249029808603046FEBD0000BD
:100B000000450040000700500D06000000050050A1
:100B100010B510490E488861C8610F4900208860EF
:100B2000C8610E48062181600721C1603321C904D4
:100B30004162094A0A4938320A61074AE43A4A617D
:100B400001228A6005210160FFF7A2FF10BD0000AD
:100B50000C06000000070050004100400045004026
:100B600000F50140F7B52B4F0E0013D02A4B2B4850
:100B7000012E11D028490831416101214160264CE4
:100B80000025EC34A560244A143A1160A0680028BE
:100B900004D008E00020FEBD4361EEE7606A002853
:100BA00001D17F1EF2D1A560002F02D0606A00281B
:100BB0000ED065621A4C25601A4EF5630520FFF7CA
:100BC00089FA0120F06305202060FFF7A1FFE1E72B
:100BD000134880690099761E08700098F6B2401C90
:100BE0000090012E09D0002E0BD01420FFF772FACE
:100BF0000949012014390862C8E7084906484861D4
:100C0000F3E760680028FCD0656004490120886033
:100C1000FEBD0000204E00001440004000F50140E1
:100C200000450040C04F0040FFB5002481B01F4682
:100C300016460546002A11D0FFF72AFF00280DD0DE
:100C4000084968088860E80702983A46314602D0A9
:100C5000FFF788FF01E000F007F80446204605B0E2
:100C6000F0BD000080450040F8B5224E96460029B0
:100C70000DD0214A0378D361401C204F01258446C2
:100C8000BD601F4B0024D869002802D004E000207A
:100C9000F8BD586A002812D0002E02D0586A0028E9
:100CA00010D05C62144E3460164FFC630520FFF7D1
:100CB00011FAFD6305203060FFF72AFFE7E7761E93
:100CC000E1D1EEE7DC61491E0906090E07D0604656
:100CD00002780948C2616046401C8446D3E77046EA
:100CE000002804D05C607D6158680028FCD0012099
:100CF000F8BD0000204E00000045004000400040CC
:100D000000410040C04F004010B50A4CA06A0028C6
:100D10000FD00120FFF756FAA06A401EA062606A59
:100D2000401C6062082801D3002060620120FFF7A8
:100D300053FA10BDDC01002070B5214800F060F8C6
:100D40001F4D204C2D1F2879C107012000290BD0F1
:100D5000287020698008C007C00F05D10826A6604A
:100D60001920FFF779FCE660287980070CD500F0A0
:100D70002DF820698008C007C00F05D12026A66085
:100D80001920FFF769FCE660287940070AD50E486C
:100D900000F0AEF80F200002E0600B4880790007F9
:100DA000000DA0600648001D00F03CF8A8680F2167
:100DB0000903E860E1600007000CA06070BD00005E
:100DC00004000020000500506C00002010B50A4807
:100DD0004078012802D0FF20043010BD0120FFF729
:100DE000F1F9064800218162416201620120FFF7AA
:100DF000F3F9002010BD000010000020DC010020ED
:100E000010B504460120FFF7DDF90548816821602F
:100E1000002181600120FFF7DFF9002010BD0000F4
:100E20001000002005494A78002A03D0896A016031
:100E300000207047FF2002307047000010000020A3
:100E400070B5214C6178002902D0FF20033070BDBD
:100E50004168216201462C221C48FFF777F900F017
:100E6000D3F8FFF75FFA1A4804210161002181607D
:100E70001949184808601A4818490163194941631B
:100E80001649091D81631749091DC1631249144898
:100E9000C039403001601149F03941600E49BC3918
:100EA00081601149C160094810492030C07A820729
:100EB0000868FF252D02120E0123A84312021043D9
:100EC00008606370002070BD1000002090000020BA
:100ED00000A500400202000000A2004000110040F6
:100EE00000F5014000A000400010004000E400E0D8
:100EF00070B5054617484078002825D0164CA06AE2
:100F0000002824D00120FFF75DF9606A8000215895
:100F10000A782A7021584978697021588978A9700F
:100F20002158281D091DFFF711F9606A401C6062F5
:100F3000082801D300206062A06A401EA062012040
:100F4000FFF74AF9002070BDFF20023070BD034852
:100F500070BD0000100000202803002003030000E3
:100F600070B5194A5278012A02D0FF20043070BDB2
:100F7000164C030025462035227BFFF79DF9080516
:100F8000080D101316191C221048133001E00F48E9
:100F90001830FFF7DBF810E0087860770DE008788C
:100FA000A0770AE00878E07707E00878287004E086
:100FB0000878687001E00878A87000F025F8002033
:100FC00070BD0120400270BD100000209000002084
:100FD00010B508494978012902D0FF20043010BD1E
:100FE00005494A7B824202D0487300F00DF8002088
:100FF00010BD0000100000209000002010B500215E
:1010000000F0BCF810BD000070B5334C33492078B7
:10101000002808D0012803D002280BD1304800E076
:101020003048C86106E03048C861607800280DD0BB
:101030002E4888612E4D607BE860207A2861002868
:1010400008D0012804D0022806D10CE02948F0E796
:10105000302000E04020C862607A6863022804D033
:10106000012806D00AE0FA20F5E72348E863234880
:1010700003E0FF20E863FF200830A863C969E07A35
:101080008847A17FE07C09060843617F227E09042E
:10109000120211430843FFF72BF96862206AE17FCF
:1010A00000020843FFF724F9A8626069E17D00BAF5
:1010B000000A00020843FFF71BF9E86106481930EF
:1010C000FFF756F800BA000A217F00020843FFF735
:1010D0000FF9286270BD0000900000201000002071
:1010E0002D1100000111000055110000050800003D
:1010F0000015004039080000FFFF0000211001002A
:101100000849074A4A61084A0302127B521E120428
:101110001A4302430120000602438A61704700001F
:10112000000101000015004090000020064805491C
:1011300041610649064A097B491E09041143816140
:1011400070470000060003000015004090000020DA
:1011500020000001074900224A61074A0302127B6E
:10116000521E12041A4302430120000602438A6100
:10117000704700000015004090000020F8B50646BA
:101180001D480D464078002805D01C4CA06A082850
:1011900004D31B48F8BDFF200230F8BD0120FFF743
:1011A00011F82946174D0027002905D06879002835
:1011B00002D00120F07000E0F770206A2422800045
:1011C00020583146FEF7C2FF206A401C20620828E2
:1011D00000D32762A06A401CA0620120FEF7FCFF3A
:1011E000A87A002805D104484078012801D1FFF7EA
:1011F000ABFB0020F8BD000010000020DC01002047
:1012000001030000B0000020020000000000000008
:101210000102023D05000000000000E7E7E7E7E704
:10122000C2C2C2C2C2C3C4C5C6C7C83F0100FA0019
:1012300003000001541200000000002048000000DC
:10124000D20200009C12000048000020500B000059
:10125000E2020000000000000000000000000000AA
:1012600000000000FF00000000000000000000007F
:1012700000000000FFFFFFFF000000000000000072
:10128000000000000000000000000000000000005E
:0C12900000000000000000000024F4003A
:04000005000000C136
:00000001FF
